{
  "_format": "hh-sol-artifact-1",
  "contractName": "CharityID",
  "sourceName": "contracts/CharityID.sol",
  "abi": [
    {
      "inputs": [],
      "stateMutability": "nonpayable",
      "type": "constructor"
    },
    {
      "inputs": [],
      "name": "HandleContainsInvalidCharacters",
      "type": "error"
    },
    {
      "inputs": [],
      "name": "HandleFirstCharInvalid",
      "type": "error"
    },
    {
      "inputs": [],
      "name": "HandleLengthInvalid",
      "type": "error"
    },
    {
      "anonymous": false,
      "inputs": [
        {
          "indexed": true,
          "internalType": "address",
          "name": "owner",
          "type": "address"
        },
        {
          "indexed": true,
          "internalType": "address",
          "name": "approved",
          "type": "address"
        },
        {
          "indexed": true,
          "internalType": "uint256",
          "name": "tokenId",
          "type": "uint256"
        }
      ],
      "name": "Approval",
      "type": "event"
    },
    {
      "anonymous": false,
      "inputs": [
        {
          "indexed": true,
          "internalType": "address",
          "name": "owner",
          "type": "address"
        },
        {
          "indexed": true,
          "internalType": "address",
          "name": "operator",
          "type": "address"
        },
        {
          "indexed": false,
          "internalType": "bool",
          "name": "approved",
          "type": "bool"
        }
      ],
      "name": "ApprovalForAll",
      "type": "event"
    },
    {
      "anonymous": false,
      "inputs": [
        {
          "indexed": false,
          "internalType": "uint256",
          "name": "_charityId",
          "type": "uint256"
        },
        {
          "indexed": false,
          "internalType": "uint256",
          "name": "_charityGain",
          "type": "uint256"
        }
      ],
      "name": "CharityGainUpdated",
      "type": "event"
    },
    {
      "anonymous": false,
      "inputs": [
        {
          "indexed": true,
          "internalType": "uint256",
          "name": "_tokenId",
          "type": "uint256"
        },
        {
          "indexed": false,
          "internalType": "string",
          "name": "_newCid",
          "type": "string"
        }
      ],
      "name": "CidUpdated",
      "type": "event"
    },
    {
      "anonymous": false,
      "inputs": [
        {
          "indexed": true,
          "internalType": "address",
          "name": "_charityAddress",
          "type": "address"
        },
        {
          "indexed": false,
          "internalType": "uint256",
          "name": "charityId",
          "type": "uint256"
        },
        {
          "indexed": false,
          "internalType": "string",
          "name": "_charityName",
          "type": "string"
        }
      ],
      "name": "Mint",
      "type": "event"
    },
    {
      "anonymous": false,
      "inputs": [
        {
          "indexed": true,
          "internalType": "bytes32",
          "name": "role",
          "type": "bytes32"
        },
        {
          "indexed": true,
          "internalType": "bytes32",
          "name": "previousAdminRole",
          "type": "bytes32"
        },
        {
          "indexed": true,
          "internalType": "bytes32",
          "name": "newAdminRole",
          "type": "bytes32"
        }
      ],
      "name": "RoleAdminChanged",
      "type": "event"
    },
    {
      "anonymous": false,
      "inputs": [
        {
          "indexed": true,
          "internalType": "bytes32",
          "name": "role",
          "type": "bytes32"
        },
        {
          "indexed": true,
          "internalType": "address",
          "name": "account",
          "type": "address"
        },
        {
          "indexed": true,
          "internalType": "address",
          "name": "sender",
          "type": "address"
        }
      ],
      "name": "RoleGranted",
      "type": "event"
    },
    {
      "anonymous": false,
      "inputs": [
        {
          "indexed": true,
          "internalType": "bytes32",
          "name": "role",
          "type": "bytes32"
        },
        {
          "indexed": true,
          "internalType": "address",
          "name": "account",
          "type": "address"
        },
        {
          "indexed": true,
          "internalType": "address",
          "name": "sender",
          "type": "address"
        }
      ],
      "name": "RoleRevoked",
      "type": "event"
    },
    {
      "anonymous": false,
      "inputs": [
        {
          "indexed": true,
          "internalType": "address",
          "name": "from",
          "type": "address"
        },
        {
          "indexed": true,
          "internalType": "address",
          "name": "to",
          "type": "address"
        },
        {
          "indexed": true,
          "internalType": "uint256",
          "name": "tokenId",
          "type": "uint256"
        }
      ],
      "name": "Transfer",
      "type": "event"
    },
    {
      "inputs": [],
      "name": "DEFAULT_ADMIN_ROLE",
      "outputs": [
        {
          "internalType": "bytes32",
          "name": "",
          "type": "bytes32"
        }
      ],
      "stateMutability": "view",
      "type": "function"
    },
    {
      "inputs": [],
      "name": "MINT_ROLE",
      "outputs": [
        {
          "internalType": "bytes32",
          "name": "",
          "type": "bytes32"
        }
      ],
      "stateMutability": "view",
      "type": "function"
    },
    {
      "inputs": [
        {
          "internalType": "address",
          "name": "to",
          "type": "address"
        },
        {
          "internalType": "uint256",
          "name": "tokenId",
          "type": "uint256"
        }
      ],
      "name": "approve",
      "outputs": [],
      "stateMutability": "nonpayable",
      "type": "function"
    },
    {
      "inputs": [
        {
          "internalType": "address",
          "name": "owner",
          "type": "address"
        }
      ],
      "name": "balanceOf",
      "outputs": [
        {
          "internalType": "uint256",
          "name": "",
          "type": "uint256"
        }
      ],
      "stateMutability": "view",
      "type": "function"
    },
    {
      "inputs": [
        {
          "internalType": "uint256",
          "name": "",
          "type": "uint256"
        }
      ],
      "name": "charities",
      "outputs": [
        {
          "internalType": "uint256",
          "name": "id",
          "type": "uint256"
        },
        {
          "internalType": "string",
          "name": "name",
          "type": "string"
        },
        {
          "internalType": "string",
          "name": "cid",
          "type": "string"
        },
        {
          "internalType": "uint256",
          "name": "charityGain",
          "type": "uint256"
        }
      ],
      "stateMutability": "view",
      "type": "function"
    },
    {
      "inputs": [
        {
          "internalType": "uint256",
          "name": "tokenId",
          "type": "uint256"
        }
      ],
      "name": "getApproved",
      "outputs": [
        {
          "internalType": "address",
          "name": "",
          "type": "address"
        }
      ],
      "stateMutability": "view",
      "type": "function"
    },
    {
      "inputs": [
        {
          "internalType": "uint256",
          "name": "_charityId",
          "type": "uint256"
        }
      ],
      "name": "getCharity",
      "outputs": [
        {
          "components": [
            {
              "internalType": "uint256",
              "name": "id",
              "type": "uint256"
            },
            {
              "internalType": "string",
              "name": "name",
              "type": "string"
            },
            {
              "internalType": "string",
              "name": "cid",
              "type": "string"
            },
            {
              "internalType": "uint256",
              "name": "charityGain",
              "type": "uint256"
            }
          ],
          "internalType": "struct CharityID.Charity",
          "name": "",
          "type": "tuple"
        }
      ],
      "stateMutability": "view",
      "type": "function"
    },
    {
      "inputs": [
        {
          "internalType": "bytes32",
          "name": "role",
          "type": "bytes32"
        }
      ],
      "name": "getRoleAdmin",
      "outputs": [
        {
          "internalType": "bytes32",
          "name": "",
          "type": "bytes32"
        }
      ],
      "stateMutability": "view",
      "type": "function"
    },
    {
      "inputs": [
        {
          "internalType": "bytes32",
          "name": "role",
          "type": "bytes32"
        },
        {
          "internalType": "address",
          "name": "account",
          "type": "address"
        }
      ],
      "name": "grantRole",
      "outputs": [],
      "stateMutability": "nonpayable",
      "type": "function"
    },
    {
      "inputs": [
        {
          "internalType": "bytes32",
          "name": "role",
          "type": "bytes32"
        },
        {
          "internalType": "address",
          "name": "account",
          "type": "address"
        }
      ],
      "name": "hasRole",
      "outputs": [
        {
          "internalType": "bool",
          "name": "",
          "type": "bool"
        }
      ],
      "stateMutability": "view",
      "type": "function"
    },
    {
      "inputs": [
        {
          "internalType": "address",
          "name": "",
          "type": "address"
        }
      ],
      "name": "ids",
      "outputs": [
        {
          "internalType": "uint256",
          "name": "",
          "type": "uint256"
        }
      ],
      "stateMutability": "view",
      "type": "function"
    },
    {
      "inputs": [
        {
          "internalType": "address",
          "name": "owner",
          "type": "address"
        },
        {
          "internalType": "address",
          "name": "operator",
          "type": "address"
        }
      ],
      "name": "isApprovedForAll",
      "outputs": [
        {
          "internalType": "bool",
          "name": "",
          "type": "bool"
        }
      ],
      "stateMutability": "view",
      "type": "function"
    },
    {
      "inputs": [
        {
          "internalType": "uint256",
          "name": "_charityId",
          "type": "uint256"
        }
      ],
      "name": "isValid",
      "outputs": [],
      "stateMutability": "view",
      "type": "function"
    },
    {
      "inputs": [
        {
          "internalType": "string",
          "name": "_charityName",
          "type": "string"
        },
        {
          "internalType": "address",
          "name": "_charityAddress",
          "type": "address"
        }
      ],
      "name": "mintForAddress",
      "outputs": [
        {
          "internalType": "uint256",
          "name": "",
          "type": "uint256"
        }
      ],
      "stateMutability": "payable",
      "type": "function"
    },
    {
      "inputs": [],
      "name": "name",
      "outputs": [
        {
          "internalType": "string",
          "name": "",
          "type": "string"
        }
      ],
      "stateMutability": "view",
      "type": "function"
    },
    {
      "inputs": [
        {
          "internalType": "uint256",
          "name": "tokenId",
          "type": "uint256"
        }
      ],
      "name": "ownerOf",
      "outputs": [
        {
          "internalType": "address",
          "name": "",
          "type": "address"
        }
      ],
      "stateMutability": "view",
      "type": "function"
    },
    {
      "inputs": [
        {
          "internalType": "bytes32",
          "name": "role",
          "type": "bytes32"
        },
        {
          "internalType": "address",
          "name": "account",
          "type": "address"
        }
      ],
      "name": "renounceRole",
      "outputs": [],
      "stateMutability": "nonpayable",
      "type": "function"
    },
    {
      "inputs": [
        {
          "internalType": "bytes32",
          "name": "role",
          "type": "bytes32"
        },
        {
          "internalType": "address",
          "name": "account",
          "type": "address"
        }
      ],
      "name": "revokeRole",
      "outputs": [],
      "stateMutability": "nonpayable",
      "type": "function"
    },
    {
      "inputs": [
        {
          "internalType": "address",
          "name": "from",
          "type": "address"
        },
        {
          "internalType": "address",
          "name": "to",
          "type": "address"
        },
        {
          "internalType": "uint256",
          "name": "tokenId",
          "type": "uint256"
        }
      ],
      "name": "safeTransferFrom",
      "outputs": [],
      "stateMutability": "nonpayable",
      "type": "function"
    },
    {
      "inputs": [
        {
          "internalType": "address",
          "name": "from",
          "type": "address"
        },
        {
          "internalType": "address",
          "name": "to",
          "type": "address"
        },
        {
          "internalType": "uint256",
          "name": "tokenId",
          "type": "uint256"
        },
        {
          "internalType": "bytes",
          "name": "data",
          "type": "bytes"
        }
      ],
      "name": "safeTransferFrom",
      "outputs": [],
      "stateMutability": "nonpayable",
      "type": "function"
    },
    {
      "inputs": [
        {
          "internalType": "address",
          "name": "operator",
          "type": "address"
        },
        {
          "internalType": "bool",
          "name": "approved",
          "type": "bool"
        }
      ],
      "name": "setApprovalForAll",
      "outputs": [],
      "stateMutability": "nonpayable",
      "type": "function"
    },
    {
      "inputs": [
        {
          "internalType": "bytes4",
          "name": "interfaceId",
          "type": "bytes4"
        }
      ],
      "name": "supportsInterface",
      "outputs": [
        {
          "internalType": "bool",
          "name": "",
          "type": "bool"
        }
      ],
      "stateMutability": "view",
      "type": "function"
    },
    {
      "inputs": [],
      "name": "symbol",
      "outputs": [
        {
          "internalType": "string",
          "name": "",
          "type": "string"
        }
      ],
      "stateMutability": "view",
      "type": "function"
    },
    {
      "inputs": [
        {
          "internalType": "string",
          "name": "",
          "type": "string"
        }
      ],
      "name": "takenCharityNames",
      "outputs": [
        {
          "internalType": "bool",
          "name": "",
          "type": "bool"
        }
      ],
      "stateMutability": "view",
      "type": "function"
    },
    {
      "inputs": [
        {
          "internalType": "uint256",
          "name": "tokenId",
          "type": "uint256"
        }
      ],
      "name": "tokenURI",
      "outputs": [
        {
          "internalType": "string",
          "name": "",
          "type": "string"
        }
      ],
      "stateMutability": "view",
      "type": "function"
    },
    {
      "inputs": [],
      "name": "totalSupply",
      "outputs": [
        {
          "internalType": "uint256",
          "name": "",
          "type": "uint256"
        }
      ],
      "stateMutability": "view",
      "type": "function"
    },
    {
      "inputs": [
        {
          "internalType": "address",
          "name": "from",
          "type": "address"
        },
        {
          "internalType": "address",
          "name": "to",
          "type": "address"
        },
        {
          "internalType": "uint256",
          "name": "tokenId",
          "type": "uint256"
        }
      ],
      "name": "transferFrom",
      "outputs": [],
      "stateMutability": "nonpayable",
      "type": "function"
    },
    {
      "inputs": [
        {
          "internalType": "uint256",
          "name": "_charityId",
          "type": "uint256"
        },
        {
          "internalType": "string",
          "name": "_newCid",
          "type": "string"
        }
      ],
      "name": "updateProfileData",
      "outputs": [],
      "stateMutability": "nonpayable",
      "type": "function"
    },
    {
      "inputs": [
        {
          "internalType": "uint256",
          "name": "_charityId",
          "type": "uint256"
        },
        {
          "internalType": "uint256",
          "name": "_charityGain",
          "type": "uint256"
        }
      ],
      "name": "updatecharityGain",
      "outputs": [],
      "stateMutability": "nonpayable",
      "type": "function"
    }
  ],
  "bytecode": "0x60806040523480156200001157600080fd5b506040518060400160405280600981526020016810da185c9a5d1e525160ba1b8152506040518060400160405280600481526020016310d2125160e21b81525081600090816200006291906200022e565b5060016200007182826200022e565b506200008391506000905033620000cc565b620000af7f154c00819833dac601ee5ddded6fda79d9d8b506b911b3dbd54cdb95fe6c368633620000cc565b620000c6600a620000dc60201b620010b61760201c565b620002fa565b620000d88282620000e5565b5050565b80546001019055565b60008281526006602090815260408083206001600160a01b038516845290915290205460ff16620000d85760008281526006602090815260408083206001600160a01b03851684529091529020805460ff19166001179055620001453390565b6001600160a01b0316816001600160a01b0316837f2f8788117e7eff1d82e926ec794901d17c78024a50270940304540a733656f0d60405160405180910390a45050565b634e487b7160e01b600052604160045260246000fd5b600181811c90821680620001b457607f821691505b602082108103620001d557634e487b7160e01b600052602260045260246000fd5b50919050565b601f8211156200022957600081815260208120601f850160051c81016020861015620002045750805b601f850160051c820191505b81811015620002255782815560010162000210565b5050505b505050565b81516001600160401b038111156200024a576200024a62000189565b62000262816200025b84546200019f565b84620001db565b602080601f8311600181146200029a5760008415620002815750858301515b600019600386901b1c1916600185901b17855562000225565b600085815260208120601f198616915b82811015620002cb57888601518255948401946001909101908401620002aa565b5085821015620002ea5787850151600019600388901b60f8161c191681555b5050505050600190811b01905550565b612e85806200030a6000396000f3fe6080604052600436106101c25760003560e01c806391d14854116100f7578063c87b56dd11610095578063f160068f11610064578063f160068f1461054d578063f577a5001461056d578063fb709d2e1461058d578063fd67db81146105bd57600080fd5b8063c87b56dd14610490578063d547741f146104b0578063e985e9c5146104d0578063e9a9c8501461051957600080fd5b8063a22cb465116100d1578063a22cb46514610402578063a470661314610422578063b88d4fde1461045d578063c37e154e1461047d57600080fd5b806391d14854146103b857806395d89b41146103d8578063a217fddf146103ed57600080fd5b8063248a9ca31161016457806342842e0e1161013e57806342842e0e146102c857806355926a06146103585780636352211e1461037857806370a082311461039857600080fd5b8063248a9ca3146102e85780632f2ff15d1461031857806336568abe1461033857600080fd5b8063095ea7b3116101a0578063095ea7b31461025657806318160ddd146102785780631847c06b1461029b57806323b872dd146102c857600080fd5b806301ffc9a7146101c757806306fdde03146101fc578063081812fc1461021e575b600080fd5b3480156101d357600080fd5b506101e76101e236600461209b565b6105ea565b60405190151581526020015b60405180910390f35b34801561020857600080fd5b5061021161060a565b6040516101f39190612108565b34801561022a57600080fd5b5061023e61023936600461211b565b61069c565b6040516001600160a01b0390911681526020016101f3565b34801561026257600080fd5b50610276610271366004612150565b6106c3565b005b34801561028457600080fd5b5061028d6107dd565b6040519081526020016101f3565b3480156102a757600080fd5b5061028d6102b636600461217a565b60096020526000908152604090205481565b3480156102d457600080fd5b506102766102e3366004612195565b6107f9565b3480156102f457600080fd5b5061028d61030336600461211b565b60009081526006602052604090206001015490565b34801561032457600080fd5b506102766103333660046121d1565b61082f565b34801561034457600080fd5b506102766103533660046121d1565b610854565b34801561036457600080fd5b506102766103733660046121fd565b6108d2565b34801561038457600080fd5b5061023e61039336600461211b565b610976565b3480156103a457600080fd5b5061028d6103b336600461217a565b6109d6565b3480156103c457600080fd5b506101e76103d33660046121d1565b610a5c565b3480156103e457600080fd5b50610211610a87565b3480156103f957600080fd5b5061028d600081565b34801561040e57600080fd5b5061027661041d36600461221f565b610a96565b34801561042e57600080fd5b506101e761043d366004612307565b805160208183018101805160078252928201919093012091525460ff1681565b34801561046957600080fd5b5061027661047836600461233c565b610aa1565b61028d61048b3660046123b8565b610b1f565b34801561049c57600080fd5b506102116104ab36600461211b565b610c74565b3480156104bc57600080fd5b506102766104cb3660046121d1565b610c7f565b3480156104dc57600080fd5b506101e76104eb366004612439565b6001600160a01b03918216600090815260056020908152604080832093909416825291909152205460ff1690565b34801561052557600080fd5b5061028d7f154c00819833dac601ee5ddded6fda79d9d8b506b911b3dbd54cdb95fe6c368681565b34801561055957600080fd5b50610276610568366004612463565b610ca4565b34801561057957600080fd5b5061027661058836600461211b565b610d96565b34801561059957600080fd5b506105ad6105a836600461211b565b610dec565b6040516101f394939291906124aa565b3480156105c957600080fd5b506105dd6105d836600461211b565b610f25565b6040516101f391906124e7565b60006105f5826110bf565b8061060457506106048261110f565b92915050565b60606000805461061990612541565b80601f016020809104026020016040519081016040528092919081815260200182805461064590612541565b80156106925780601f1061066757610100808354040283529160200191610692565b820191906000526020600020905b81548152906001019060200180831161067557829003601f168201915b5050505050905090565b60006106a782611134565b506000908152600460205260409020546001600160a01b031690565b60006106ce82610976565b9050806001600160a01b0316836001600160a01b0316036107405760405162461bcd60e51b815260206004820152602160248201527f4552433732313a20617070726f76616c20746f2063757272656e74206f776e656044820152603960f91b60648201526084015b60405180910390fd5b336001600160a01b038216148061075c575061075c81336104eb565b6107ce5760405162461bcd60e51b815260206004820152603d60248201527f4552433732313a20617070726f76652063616c6c6572206973206e6f7420746f60448201527f6b656e206f776e6572206f7220617070726f76656420666f7220616c6c0000006064820152608401610737565b6107d88383611193565b505050565b600060016107ea600a5490565b6107f49190612591565b905090565b60405162461bcd60e51b815260206004820152600b60248201526a139bdd08185b1b1bddd95960aa1b6044820152606401610737565b60008281526006602052604090206001015461084a81611201565b6107d8838361120b565b6001600160a01b03811633146108c45760405162461bcd60e51b815260206004820152602f60248201527f416363657373436f6e74726f6c3a2063616e206f6e6c792072656e6f756e636560448201526e103937b632b9903337b91039b2b63360891b6064820152608401610737565b6108ce8282611291565b5050565b81336108dd82610976565b6001600160a01b0316146109235760405162461bcd60e51b815260206004820152600d60248201526c2737ba103a34329037bbb732b960991b6044820152606401610737565b60008381526008602090815260409182902060030184905581518581529081018490527f3012ff9c957f7cd80a9675215ce9c6972d12a18713d7f20ba05f4e2ade7b619d910160405180910390a1505050565b6000818152600260205260408120546001600160a01b0316806106045760405162461bcd60e51b8152602060048201526018602482015277115490cdcc8c4e881a5b9d985b1a59081d1bdad95b88125160421b6044820152606401610737565b60006001600160a01b038216610a405760405162461bcd60e51b815260206004820152602960248201527f4552433732313a2061646472657373207a65726f206973206e6f7420612076616044820152683634b21037bbb732b960b91b6064820152608401610737565b506001600160a01b031660009081526003602052604090205490565b60009182526006602090815260408084206001600160a01b0393909316845291905290205460ff1690565b60606001805461061990612541565b6108ce3383836112f8565b610aab33836113c6565b610b0d5760405162461bcd60e51b815260206004820152602d60248201527f4552433732313a2063616c6c6572206973206e6f7420746f6b656e206f776e6560448201526c1c881bdc88185c1c1c9bdd9959609a1b6064820152608401610737565b610b1984848484611445565b50505050565b6000838383610b2d816109d6565b15610b7a5760405162461bcd60e51b815260206004820181905260248201527f4368617269747920616c726561647920686173206120436861726974792049446044820152606401610737565b60078383604051610b8c9291906125a4565b9081526040519081900360200190205460ff1615610be15760405162461bcd60e51b81526020600482015260126024820152712730b6b29030b63932b0b23c903a30b5b2b760711b6044820152606401610737565b610beb8383611478565b7f154c00819833dac601ee5ddded6fda79d9d8b506b911b3dbd54cdb95fe6c3686610c1581611201565b610c2786610c22600a5490565b61169a565b610c6888888080601f0160208091040260200160405190810160405280939291908181526020018383808284376000920191909152508a9250611833915050565b98975050505050505050565b6060610604826118fd565b600082815260066020526040902060010154610c9a81611201565b6107d88383611291565b8133610caf82610976565b6001600160a01b031614610cf55760405162461bcd60e51b815260206004820152600d60248201526c2737ba103a34329037bbb732b960991b6044820152606401610737565b8151602e14610d345760405162461bcd60e51b815260206004820152600b60248201526a125b9d985b1a590818da5960aa1b6044820152606401610737565b610d3d83610d96565b6000838152600860205260409020600201610d5883826125fa565b50827f613807bd6768f626264e7eb664a65ca99a0d930f8fd8a5b868491a592eb57f7283604051610d899190612108565b60405180910390a2505050565b600081118015610da75750600a5481105b610de95760405162461bcd60e51b8152602060048201526013602482015272125b9d985b1a59081c1b185d199bdc9b481251606a1b6044820152606401610737565b50565b60086020526000908152604090208054600182018054919291610e0e90612541565b80601f0160208091040260200160405190810160405280929190818152602001828054610e3a90612541565b8015610e875780601f10610e5c57610100808354040283529160200191610e87565b820191906000526020600020905b815481529060010190602001808311610e6a57829003601f168201915b505050505090806002018054610e9c90612541565b80601f0160208091040260200160405190810160405280929190818152602001828054610ec890612541565b8015610f155780601f10610eea57610100808354040283529160200191610f15565b820191906000526020600020905b815481529060010190602001808311610ef857829003601f168201915b5050505050908060030154905084565b610f506040518060800160405280600081526020016060815260200160608152602001600081525090565b610f5982610d96565b6008600083815260200190815260200160002060405180608001604052908160008201548152602001600182018054610f9190612541565b80601f0160208091040260200160405190810160405280929190818152602001828054610fbd90612541565b801561100a5780601f10610fdf5761010080835404028352916020019161100a565b820191906000526020600020905b815481529060010190602001808311610fed57829003601f168201915b5050505050815260200160028201805461102390612541565b80601f016020809104026020016040519081016040528092919081815260200182805461104f90612541565b801561109c5780601f106110715761010080835404028352916020019161109c565b820191906000526020600020905b81548152906001019060200180831161107f57829003601f168201915b505050505081526020016003820154815250509050919050565b80546001019055565b60006001600160e01b031982166380ac58cd60e01b14806110f057506001600160e01b03198216635b5e139f60e01b145b8061060457506301ffc9a760e01b6001600160e01b0319831614610604565b60006001600160e01b03198216637965db0b60e01b14806106045750610604826110bf565b6000818152600260205260409020546001600160a01b0316610de95760405162461bcd60e51b8152602060048201526018602482015277115490cdcc8c4e881a5b9d985b1a59081d1bdad95b88125160421b6044820152606401610737565b600081815260046020526040902080546001600160a01b0319166001600160a01b03841690811790915581906111c882610976565b6001600160a01b03167f8c5be1e5ebec7d5bd14f71427d1e84f3dd0314c0f7b2291e5b200ac8c7c3b92560405160405180910390a45050565b610de98133611a2a565b6112158282610a5c565b6108ce5760008281526006602090815260408083206001600160a01b03851684529091529020805460ff1916600117905561124d3390565b6001600160a01b0316816001600160a01b0316837f2f8788117e7eff1d82e926ec794901d17c78024a50270940304540a733656f0d60405160405180910390a45050565b61129b8282610a5c565b156108ce5760008281526006602090815260408083206001600160a01b0385168085529252808320805460ff1916905551339285917ff6391f5c32d9c69d2a47ea670b442974b53935d1edc7fd64eb21e047a839171b9190a45050565b816001600160a01b0316836001600160a01b0316036113595760405162461bcd60e51b815260206004820152601960248201527f4552433732313a20617070726f766520746f2063616c6c6572000000000000006044820152606401610737565b6001600160a01b03838116600081815260056020908152604080832094871680845294825291829020805460ff191686151590811790915591519182527f17307eab39ab6107e8899845ad3d59bd9653f200f220920489ca2b5937696c31910160405180910390a3505050565b6000806113d283610976565b9050806001600160a01b0316846001600160a01b0316148061141957506001600160a01b0380821660009081526005602090815260408083209388168352929052205460ff165b8061143d5750836001600160a01b03166114328461069c565b6001600160a01b0316145b949350505050565b611450848484611a83565b61145c84848484611bf4565b610b195760405162461bcd60e51b8152600401610737906126ba565b600082828080601f01602080910402602001604051908101604052809392919081815260200183838082843760009201919091525050825192935050600582109050806114c55750601f81115b156114e357604051633eb64ab360e01b815260040160405180910390fd5b6000848460008181106114f8576114f861270c565b909101356001600160f81b031916915050602d60f81b8114806115285750605f60f81b6001600160f81b03198216145b1561154657604051632f2c22a760e11b815260040160405180910390fd5b60005b8281101561169257600360fc1b8482815181106115685761156861270c565b01602001516001600160f81b03191610806115a65750603d60f91b8482815181106115955761159561270c565b01602001516001600160f81b031916115b806116025750603960f81b8482815181106115c3576115c361270c565b01602001516001600160f81b0319161180156116025750606160f81b8482815181106115f1576115f161270c565b01602001516001600160f81b031916105b8015611633575083818151811061161b5761161b61270c565b6020910101516001600160f81b031916602d60f81b14155b8015611664575083818151811061164c5761164c61270c565b6020910101516001600160f81b031916605f60f81b14155b1561168257604051630bb7f19b60e21b815260040160405180910390fd5b61168b81612722565b9050611549565b505050505050565b6001600160a01b0382166116f05760405162461bcd60e51b815260206004820181905260248201527f4552433732313a206d696e7420746f20746865207a65726f20616464726573736044820152606401610737565b6000818152600260205260409020546001600160a01b0316156117555760405162461bcd60e51b815260206004820152601c60248201527f4552433732313a20746f6b656e20616c7265616479206d696e746564000000006044820152606401610737565b611763600083836001611cf5565b6000818152600260205260409020546001600160a01b0316156117c85760405162461bcd60e51b815260206004820152601c60248201527f4552433732313a20746f6b656e20616c7265616479206d696e746564000000006044820152606401610737565b6001600160a01b038216600081815260036020908152604080832080546001019055848352600290915280822080546001600160a01b0319168417905551839291907fddf252ad1be2c89b69c2b068fc378daa952ba7f163c4a11628f55a4df523b3ef908290a45050565b60008061183f600a5490565b905061184f600a80546001019055565b60008181526008602052604090206001810161186b86826125fa565b50818155604051600190600790611883908890612757565b9081526040805160209281900383018120805460ff1916941515949094179093556001600160a01b038716600081815260099093529120849055907f85a66b9141978db9980f7e0ce3b468cebf4f7999f32b23091c5c03e798b1ba7a906118ed9085908990612773565b60405180910390a2509392505050565b600081815260086020908152604080832090516060939261192292600101910161278c565b60405160208183030381529060405290506000601460086000868152602001908152602001600020600101805461195890612541565b905011156119805760405180604001604052806002815260200161034360f41b81525061199c565b60405180604001604052806002815260200161036360f41b8152505b905060006119ca82846040516020016119b692919061280f565b604051602081830303815290604052611d7d565b6040516020016119da9190612b87565b6040516020818303038152906040529050611a0183826040516020016119b6929190612bcc565b604051602001611a119190612c53565b6040516020818303038152906040529350505050919050565b611a348282610a5c565b6108ce57611a4181611ed0565b611a4c836020611ee2565b604051602001611a5d929190612c98565b60408051601f198184030181529082905262461bcd60e51b825261073791600401612108565b826001600160a01b0316611a9682610976565b6001600160a01b031614611abc5760405162461bcd60e51b815260040161073790612d0d565b6001600160a01b038216611b1e5760405162461bcd60e51b8152602060048201526024808201527f4552433732313a207472616e7366657220746f20746865207a65726f206164646044820152637265737360e01b6064820152608401610737565b611b2b8383836001611cf5565b826001600160a01b0316611b3e82610976565b6001600160a01b031614611b645760405162461bcd60e51b815260040161073790612d0d565b600081815260046020908152604080832080546001600160a01b03199081169091556001600160a01b0387811680865260038552838620805460001901905590871680865283862080546001019055868652600290945282852080549092168417909155905184937fddf252ad1be2c89b69c2b068fc378daa952ba7f163c4a11628f55a4df523b3ef91a4505050565b60006001600160a01b0384163b15611cea57604051630a85bd0160e11b81526001600160a01b0385169063150b7a0290611c38903390899088908890600401612d52565b6020604051808303816000875af1925050508015611c73575060408051601f3d908101601f19168201909252611c7091810190612d8f565b60015b611cd0573d808015611ca1576040519150601f19603f3d011682016040523d82523d6000602084013e611ca6565b606091505b508051600003611cc85760405162461bcd60e51b8152600401610737906126ba565b805181602001fd5b6001600160e01b031916630a85bd0160e11b14905061143d565b506001949350505050565b6001811115610b19576001600160a01b03841615611d3b576001600160a01b03841660009081526003602052604081208054839290611d35908490612591565b90915550505b6001600160a01b03831615610b19576001600160a01b03831660009081526003602052604081208054839290611d72908490612dac565b909155505050505050565b60608151600003611d9c57505060408051602081019091526000815290565b6000604051806060016040528060408152602001612e106040913990506000600384516002611dcb9190612dac565b611dd59190612dbf565b611de0906004612de1565b67ffffffffffffffff811115611df857611df861225b565b6040519080825280601f01601f191660200182016040528015611e22576020820181803683370190505b509050600182016020820185865187015b80821015611e8e576003820191508151603f8160121c168501518453600184019350603f81600c1c168501518453600184019350603f8160061c168501518453600184019350603f8116850151845350600183019250611e33565b5050600386510660018114611eaa5760028114611ebd57611ec5565b603d6001830353603d6002830353611ec5565b603d60018303535b509195945050505050565b60606106046001600160a01b03831660145b60606000611ef1836002612de1565b611efc906002612dac565b67ffffffffffffffff811115611f1457611f1461225b565b6040519080825280601f01601f191660200182016040528015611f3e576020820181803683370190505b509050600360fc1b81600081518110611f5957611f5961270c565b60200101906001600160f81b031916908160001a905350600f60fb1b81600181518110611f8857611f8861270c565b60200101906001600160f81b031916908160001a9053506000611fac846002612de1565b611fb7906001612dac565b90505b600181111561202f576f181899199a1a9b1b9c1cb0b131b232b360811b85600f1660108110611feb57611feb61270c565b1a60f81b8282815181106120015761200161270c565b60200101906001600160f81b031916908160001a90535060049490941c9361202881612df8565b9050611fba565b50831561207e5760405162461bcd60e51b815260206004820181905260248201527f537472696e67733a20686578206c656e67746820696e73756666696369656e746044820152606401610737565b9392505050565b6001600160e01b031981168114610de957600080fd5b6000602082840312156120ad57600080fd5b813561207e81612085565b60005b838110156120d35781810151838201526020016120bb565b50506000910152565b600081518084526120f48160208601602086016120b8565b601f01601f19169290920160200192915050565b60208152600061207e60208301846120dc565b60006020828403121561212d57600080fd5b5035919050565b80356001600160a01b038116811461214b57600080fd5b919050565b6000806040838503121561216357600080fd5b61216c83612134565b946020939093013593505050565b60006020828403121561218c57600080fd5b61207e82612134565b6000806000606084860312156121aa57600080fd5b6121b384612134565b92506121c160208501612134565b9150604084013590509250925092565b600080604083850312156121e457600080fd5b823591506121f460208401612134565b90509250929050565b6000806040838503121561221057600080fd5b50508035926020909101359150565b6000806040838503121561223257600080fd5b61223b83612134565b91506020830135801515811461225057600080fd5b809150509250929050565b634e487b7160e01b600052604160045260246000fd5b600067ffffffffffffffff8084111561228c5761228c61225b565b604051601f8501601f19908116603f011681019082821181831017156122b4576122b461225b565b816040528093508581528686860111156122cd57600080fd5b858560208301376000602087830101525050509392505050565b600082601f8301126122f857600080fd5b61207e83833560208501612271565b60006020828403121561231957600080fd5b813567ffffffffffffffff81111561233057600080fd5b61143d848285016122e7565b6000806000806080858703121561235257600080fd5b61235b85612134565b935061236960208601612134565b925060408501359150606085013567ffffffffffffffff81111561238c57600080fd5b8501601f8101871361239d57600080fd5b6123ac87823560208401612271565b91505092959194509250565b6000806000604084860312156123cd57600080fd5b833567ffffffffffffffff808211156123e557600080fd5b818601915086601f8301126123f957600080fd5b81358181111561240857600080fd5b87602082850101111561241a57600080fd5b6020928301955093506124309186019050612134565b90509250925092565b6000806040838503121561244c57600080fd5b61245583612134565b91506121f460208401612134565b6000806040838503121561247657600080fd5b82359150602083013567ffffffffffffffff81111561249457600080fd5b6124a0858286016122e7565b9150509250929050565b8481526080602082015260006124c360808301866120dc565b82810360408401526124d581866120dc565b91505082606083015295945050505050565b6020815281516020820152600060208301516080604084015261250d60a08401826120dc565b90506040840151601f1984830301606085015261252a82826120dc565b915050606084015160808401528091505092915050565b600181811c9082168061255557607f821691505b60208210810361257557634e487b7160e01b600052602260045260246000fd5b50919050565b634e487b7160e01b600052601160045260246000fd5b818103818111156106045761060461257b565b8183823760009101908152919050565b601f8211156107d857600081815260208120601f850160051c810160208610156125db5750805b601f850160051c820191505b81811015611692578281556001016125e7565b815167ffffffffffffffff8111156126145761261461225b565b612628816126228454612541565b846125b4565b602080601f83116001811461265d57600084156126455750858301515b600019600386901b1c1916600185901b178555611692565b600085815260208120601f198616915b8281101561268c5788860151825594840194600190910190840161266d565b50858210156126aa5787850151600019600388901b60f8161c191681555b5050505050600190811b01905550565b60208082526032908201527f4552433732313a207472616e7366657220746f206e6f6e20455243373231526560408201527131b2b4bb32b91034b6b83632b6b2b73a32b960711b606082015260800190565b634e487b7160e01b600052603260045260246000fd5b6000600182016127345761273461257b565b5060010190565b6000815161274d8185602086016120b8565b9290920192915050565b600082516127698184602087016120b8565b9190910192915050565b82815260406020820152600061143d60408301846120dc565b600080835461279a81612541565b600182811680156127b257600181146127c7576127f6565b60ff19841687528215158302870194506127f6565b8760005260208060002060005b858110156127ed5781548a8201529084019082016127d4565b50505082870194505b5050640b999d5b9960da1b835250506005019392505050565b7f3c73766720786d6c6e733d22687474703a2f2f7777772e77332e6f72672f323081527f30302f737667222077696474683d2237323022206865696768743d223732302260208201527f3e3c726563742077696474683d223130302522206865696768743d223130302560408201527f222f3e3c73766720786d6c6e733d22687474703a2f2f7777772e77332e6f726760608201527f2f323030302f737667222077696474683d2231353022206865696768743d223160808201527f3530222076657273696f6e3d22312e32222076696577426f783d222d3230302060a08201527f2d353020313030302031303030223e3c706174682066696c6c3d22234646464660c08201527f46462220643d224d3236342e35203139302e3563302d31332e382031312e322d60e08201527f32352032352d3235483536386331332e3820302032352031312e3220323520326101008201527f357634393063302031332e382d31312e322032352d3235203235483238392e356101208201527f632d31332e3820302d32352d31312e322d32352d32357a222f3e3c70617468206101408201527f66696c6c3d22234646464646462220643d224d3236352036323463302d31332e6101608201527f382031312e322d32352032352d3235683534336331332e3820302032352031316101808201527f2e322032352032357635362e3563302031332e382d31312e322032352d3235206101a08201527f323548323930632d31332e3820302d32352d31312e322d32352d32357a222f3e6101c08201527f3c706174682066696c6c3d22234646464646462220643d224d30203139302e356101e08201527f63302d31332e382031312e322d32352032352d3235683534336331332e3820306102008201527f2032352031312e322032352032355632343763302031332e382d31312e3220326102208201527f352d3235203235483235632d31332e3820302d32352d31312e322d32352d32356102408201527f7a222f3e3c2f7376673e3c7465787420783d2233302220793d223637302220736102608201526b03a3cb6329e913337b73a1d160a51b610280820152600061143d612b6e612b68612b3f61028c86018861273b565b7f70782073616e732d73657269663b66696c6c3a23666666223e00000000000000815260190190565b8561273b565b6c1e17ba32bc3a1f1e17b9bb339f60991b8152600d0190565b7f646174613a696d6167652f7376672b786d6c3b6261736536342c000000000000815260008251612bbf81601a8501602087016120b8565b91909101601a0192915050565b683d913730b6b2911d1160b91b81528251600090612bf18160098501602088016120b8565b6b1116101134b6b0b3b2911d1160a11b6009918401918201528351612c1d8160158401602088016120b8565b7f222c20226465736372697074696f6e223a202243686172697479204944227d0060159290910191820152603401949350505050565b7f646174613a6170706c69636174696f6e2f6a736f6e3b6261736536342c000000815260008251612c8b81601d8501602087016120b8565b91909101601d0192915050565b7f416363657373436f6e74726f6c3a206163636f756e7420000000000000000000815260008351612cd08160178501602088016120b8565b7001034b99036b4b9b9b4b733903937b6329607d1b6017918401918201528351612d018160288401602088016120b8565b01602801949350505050565b60208082526025908201527f4552433732313a207472616e736665722066726f6d20696e636f72726563742060408201526437bbb732b960d91b606082015260800190565b6001600160a01b0385811682528416602082015260408101839052608060608201819052600090612d85908301846120dc565b9695505050505050565b600060208284031215612da157600080fd5b815161207e81612085565b808201808211156106045761060461257b565b600082612ddc57634e487b7160e01b600052601260045260246000fd5b500490565b80820281158282048414176106045761060461257b565b600081612e0757612e0761257b565b50600019019056fe4142434445464748494a4b4c4d4e4f505152535455565758595a6162636465666768696a6b6c6d6e6f707172737475767778797a303132333435363738392b2fa2646970667358221220deeed7c223f04580bd26a18a2cda58a1026bfee528138eba6e84cbd807f8ed0664736f6c63430008110033",
  "linkReferences": {},
  "deployedLinkReferences": {}
}