{
  "_format": "hh-sol-artifact-1",
  "contractName": "TreasureHunt",
  "sourceName": "contracts/TreasureHunt.sol",
  "abi": [
    {
      "inputs": [
        {
          "internalType": "address",
          "name": "_charityContractAddress",
          "type": "address"
        }
      ],
      "stateMutability": "nonpayable",
      "type": "constructor"
    },
    {
      "anonymous": false,
      "inputs": [
        {
          "indexed": true,
          "internalType": "address",
          "name": "playerAddress",
          "type": "address"
        },
        {
          "indexed": false,
          "internalType": "uint256",
          "name": "amountDeposit",
          "type": "uint256"
        },
        {
          "indexed": false,
          "internalType": "uint256",
          "name": "treasureHuntId",
          "type": "uint256"
        }
      ],
      "name": "DepositToParticipateDone",
      "type": "event"
    },
    {
      "anonymous": false,
      "inputs": [
        {
          "indexed": true,
          "internalType": "bytes32",
          "name": "role",
          "type": "bytes32"
        },
        {
          "indexed": true,
          "internalType": "bytes32",
          "name": "previousAdminRole",
          "type": "bytes32"
        },
        {
          "indexed": true,
          "internalType": "bytes32",
          "name": "newAdminRole",
          "type": "bytes32"
        }
      ],
      "name": "RoleAdminChanged",
      "type": "event"
    },
    {
      "anonymous": false,
      "inputs": [
        {
          "indexed": true,
          "internalType": "bytes32",
          "name": "role",
          "type": "bytes32"
        },
        {
          "indexed": true,
          "internalType": "address",
          "name": "account",
          "type": "address"
        },
        {
          "indexed": true,
          "internalType": "address",
          "name": "sender",
          "type": "address"
        }
      ],
      "name": "RoleGranted",
      "type": "event"
    },
    {
      "anonymous": false,
      "inputs": [
        {
          "indexed": true,
          "internalType": "bytes32",
          "name": "role",
          "type": "bytes32"
        },
        {
          "indexed": true,
          "internalType": "address",
          "name": "account",
          "type": "address"
        },
        {
          "indexed": true,
          "internalType": "address",
          "name": "sender",
          "type": "address"
        }
      ],
      "name": "RoleRevoked",
      "type": "event"
    },
    {
      "anonymous": false,
      "inputs": [
        {
          "indexed": true,
          "internalType": "uint256",
          "name": "treasureHuntId",
          "type": "uint256"
        },
        {
          "indexed": true,
          "internalType": "address",
          "name": "player",
          "type": "address"
        }
      ],
      "name": "TreasureHuntClaimed",
      "type": "event"
    },
    {
      "anonymous": false,
      "inputs": [
        {
          "indexed": true,
          "internalType": "uint256",
          "name": "treasureHuntId",
          "type": "uint256"
        }
      ],
      "name": "TreasureHuntClosed",
      "type": "event"
    },
    {
      "anonymous": false,
      "inputs": [
        {
          "indexed": true,
          "internalType": "uint256",
          "name": "treasureHuntId",
          "type": "uint256"
        },
        {
          "indexed": false,
          "internalType": "string",
          "name": "newTreasureHuntCid",
          "type": "string"
        }
      ],
      "name": "TreasureHuntDetailedUpdated",
      "type": "event"
    },
    {
      "anonymous": false,
      "inputs": [
        {
          "indexed": true,
          "internalType": "address",
          "name": "solarFundAddress",
          "type": "address"
        },
        {
          "indexed": false,
          "internalType": "uint256",
          "name": "amountWithdrawn",
          "type": "uint256"
        }
      ],
      "name": "WithdrawDone",
      "type": "event"
    },
    {
      "anonymous": false,
      "inputs": [
        {
          "indexed": false,
          "internalType": "enum TreasureHunt.Status",
          "name": "status",
          "type": "uint8"
        },
        {
          "indexed": false,
          "internalType": "uint256",
          "name": "id",
          "type": "uint256"
        },
        {
          "indexed": false,
          "internalType": "uint256",
          "name": "charityId",
          "type": "uint256"
        },
        {
          "indexed": false,
          "internalType": "uint256",
          "name": "bountyAmount",
          "type": "uint256"
        },
        {
          "indexed": false,
          "internalType": "string",
          "name": "treasureHuntCid",
          "type": "string"
        },
        {
          "indexed": false,
          "internalType": "bytes32",
          "name": "secretCodeHash",
          "type": "bytes32"
        }
      ],
      "name": "treasureHuntCreated",
      "type": "event"
    },
    {
      "inputs": [],
      "name": "DEFAULT_ADMIN_ROLE",
      "outputs": [
        {
          "internalType": "bytes32",
          "name": "",
          "type": "bytes32"
        }
      ],
      "stateMutability": "view",
      "type": "function"
    },
    {
      "inputs": [],
      "name": "charityIdContrat",
      "outputs": [
        {
          "internalType": "contract ICharityID",
          "name": "",
          "type": "address"
        }
      ],
      "stateMutability": "view",
      "type": "function"
    },
    {
      "inputs": [
        {
          "internalType": "uint256",
          "name": "_treasureHuntId",
          "type": "uint256"
        },
        {
          "internalType": "bytes32",
          "name": "_secretCodeHash",
          "type": "bytes32"
        }
      ],
      "name": "checkIfWin",
      "outputs": [
        {
          "internalType": "bool",
          "name": "",
          "type": "bool"
        }
      ],
      "stateMutability": "view",
      "type": "function"
    },
    {
      "inputs": [
        {
          "internalType": "uint256",
          "name": "_charityId",
          "type": "uint256"
        },
        {
          "internalType": "uint256",
          "name": "_treasureHuntId",
          "type": "uint256"
        }
      ],
      "name": "closeTreasureHunt",
      "outputs": [],
      "stateMutability": "nonpayable",
      "type": "function"
    },
    {
      "inputs": [
        {
          "internalType": "uint256",
          "name": "_charityId",
          "type": "uint256"
        },
        {
          "internalType": "string",
          "name": "_treasureHuntCid",
          "type": "string"
        },
        {
          "internalType": "uint256",
          "name": "_depositAmount",
          "type": "uint256"
        },
        {
          "internalType": "bytes32",
          "name": "_secretCodeHash",
          "type": "bytes32"
        }
      ],
      "name": "createTreasureHunt",
      "outputs": [
        {
          "internalType": "uint256",
          "name": "",
          "type": "uint256"
        }
      ],
      "stateMutability": "nonpayable",
      "type": "function"
    },
    {
      "inputs": [
        {
          "internalType": "uint256",
          "name": "_treasureHuntId",
          "type": "uint256"
        },
        {
          "internalType": "bytes32",
          "name": "_secretCodeHash",
          "type": "bytes32"
        },
        {
          "internalType": "uint256",
          "name": "_amountPlayerGive",
          "type": "uint256"
        }
      ],
      "name": "customClaimTreasureHunt",
      "outputs": [],
      "stateMutability": "nonpayable",
      "type": "function"
    },
    {
      "inputs": [
        {
          "internalType": "uint256",
          "name": "_treasureHuntId",
          "type": "uint256"
        }
      ],
      "name": "depositAmountToParticipate",
      "outputs": [],
      "stateMutability": "payable",
      "type": "function"
    },
    {
      "inputs": [
        {
          "internalType": "bytes32",
          "name": "role",
          "type": "bytes32"
        }
      ],
      "name": "getRoleAdmin",
      "outputs": [
        {
          "internalType": "bytes32",
          "name": "",
          "type": "bytes32"
        }
      ],
      "stateMutability": "view",
      "type": "function"
    },
    {
      "inputs": [
        {
          "internalType": "uint256",
          "name": "_treasureHuntId",
          "type": "uint256"
        }
      ],
      "name": "getTreasureHunt",
      "outputs": [
        {
          "components": [
            {
              "internalType": "enum TreasureHunt.Status",
              "name": "status",
              "type": "uint8"
            },
            {
              "internalType": "uint256",
              "name": "id",
              "type": "uint256"
            },
            {
              "internalType": "uint256",
              "name": "charityId",
              "type": "uint256"
            },
            {
              "internalType": "uint256",
              "name": "depositAmount",
              "type": "uint256"
            },
            {
              "internalType": "string",
              "name": "cid",
              "type": "string"
            },
            {
              "internalType": "uint256",
              "name": "totalTreasureHuntDeposit",
              "type": "uint256"
            },
            {
              "internalType": "bytes32",
              "name": "secretCodeHash",
              "type": "bytes32"
            },
            {
              "internalType": "uint256",
              "name": "numParticipants",
              "type": "uint256"
            }
          ],
          "internalType": "struct TreasureHunt.TreasureHunt",
          "name": "",
          "type": "tuple"
        }
      ],
      "stateMutability": "view",
      "type": "function"
    },
    {
      "inputs": [
        {
          "internalType": "bytes32",
          "name": "role",
          "type": "bytes32"
        },
        {
          "internalType": "address",
          "name": "account",
          "type": "address"
        }
      ],
      "name": "grantRole",
      "outputs": [],
      "stateMutability": "nonpayable",
      "type": "function"
    },
    {
      "inputs": [
        {
          "internalType": "bytes32",
          "name": "role",
          "type": "bytes32"
        },
        {
          "internalType": "address",
          "name": "account",
          "type": "address"
        }
      ],
      "name": "hasRole",
      "outputs": [
        {
          "internalType": "bool",
          "name": "",
          "type": "bool"
        }
      ],
      "stateMutability": "view",
      "type": "function"
    },
    {
      "inputs": [],
      "name": "nextTreasureHuntId",
      "outputs": [
        {
          "internalType": "uint256",
          "name": "",
          "type": "uint256"
        }
      ],
      "stateMutability": "view",
      "type": "function"
    },
    {
      "inputs": [
        {
          "internalType": "bytes32",
          "name": "role",
          "type": "bytes32"
        },
        {
          "internalType": "address",
          "name": "account",
          "type": "address"
        }
      ],
      "name": "renounceRole",
      "outputs": [],
      "stateMutability": "nonpayable",
      "type": "function"
    },
    {
      "inputs": [
        {
          "internalType": "bytes32",
          "name": "role",
          "type": "bytes32"
        },
        {
          "internalType": "address",
          "name": "account",
          "type": "address"
        }
      ],
      "name": "revokeRole",
      "outputs": [],
      "stateMutability": "nonpayable",
      "type": "function"
    },
    {
      "inputs": [
        {
          "internalType": "bytes4",
          "name": "interfaceId",
          "type": "bytes4"
        }
      ],
      "name": "supportsInterface",
      "outputs": [
        {
          "internalType": "bool",
          "name": "",
          "type": "bool"
        }
      ],
      "stateMutability": "view",
      "type": "function"
    },
    {
      "inputs": [
        {
          "internalType": "uint256",
          "name": "",
          "type": "uint256"
        },
        {
          "internalType": "address",
          "name": "",
          "type": "address"
        }
      ],
      "name": "treasureHuntPlayerDeposit",
      "outputs": [
        {
          "internalType": "uint256",
          "name": "",
          "type": "uint256"
        }
      ],
      "stateMutability": "view",
      "type": "function"
    },
    {
      "inputs": [
        {
          "internalType": "uint256",
          "name": "",
          "type": "uint256"
        }
      ],
      "name": "treasureHunts",
      "outputs": [
        {
          "internalType": "enum TreasureHunt.Status",
          "name": "status",
          "type": "uint8"
        },
        {
          "internalType": "uint256",
          "name": "id",
          "type": "uint256"
        },
        {
          "internalType": "uint256",
          "name": "charityId",
          "type": "uint256"
        },
        {
          "internalType": "uint256",
          "name": "depositAmount",
          "type": "uint256"
        },
        {
          "internalType": "string",
          "name": "cid",
          "type": "string"
        },
        {
          "internalType": "uint256",
          "name": "totalTreasureHuntDeposit",
          "type": "uint256"
        },
        {
          "internalType": "bytes32",
          "name": "secretCodeHash",
          "type": "bytes32"
        },
        {
          "internalType": "uint256",
          "name": "numParticipants",
          "type": "uint256"
        }
      ],
      "stateMutability": "view",
      "type": "function"
    },
    {
      "inputs": [
        {
          "internalType": "uint256",
          "name": "_charityId",
          "type": "uint256"
        },
        {
          "internalType": "uint256",
          "name": "_treasureHuntId",
          "type": "uint256"
        },
        {
          "internalType": "string",
          "name": "_newTreasureHuntCid",
          "type": "string"
        }
      ],
      "name": "updateTreasureHunt",
      "outputs": [
        {
          "internalType": "uint256",
          "name": "",
          "type": "uint256"
        }
      ],
      "stateMutability": "nonpayable",
      "type": "function"
    },
    {
      "inputs": [
        {
          "internalType": "address",
          "name": "_solarFundAddress",
          "type": "address"
        }
      ],
      "name": "withdraw",
      "outputs": [],
      "stateMutability": "nonpayable",
      "type": "function"
    },
    {
      "stateMutability": "payable",
      "type": "receive"
    }
  ],
  "bytecode": "0x608060405260006002553480156200001657600080fd5b50604051620021783803806200217883398101604081905262000039916200011c565b60018055600380546001600160a01b0319166001600160a01b038316179055620000656000336200006c565b506200014e565b6200007882826200007c565b5050565b6000828152602081815260408083206001600160a01b038516845290915290205460ff1662000078576000828152602081815260408083206001600160a01b03851684529091529020805460ff19166001179055620000d83390565b6001600160a01b0316816001600160a01b0316837f2f8788117e7eff1d82e926ec794901d17c78024a50270940304540a733656f0d60405160405180910390a45050565b6000602082840312156200012f57600080fd5b81516001600160a01b03811681146200014757600080fd5b9392505050565b61201a806200015e6000396000f3fe6080604052600436106101185760003560e01c80636d54b6e8116100a0578063a217fddf11610064578063a217fddf146103a2578063d2dc7554146103b7578063d547741f146103ef578063dc263ac61461040f578063e974c32d1461044357600080fd5b80636d54b6e81461030257806391a5710b1461032257806391d14854146103425780639c64f60714610362578063a08d03751461038257600080fd5b806336568abe116100e757806336568abe1461024a578063442174d61461026a5780634b53958d1461027d57806351cff8d9146102b55780635bef1708146102d557600080fd5b806301ffc9a714610195578063032a1fe5146101ca578063248a9ca3146101f85780632f2ff15d1461022857600080fd5b366101905760405162461bcd60e51b815260206004820152603d60248201527f506c656173652075736520746865206465706f736974426f756e7479416d6f7560448201527f6e742066756e6374696f6e20746f206465706f7369742065746865727300000060648201526084015b60405180910390fd5b600080fd5b3480156101a157600080fd5b506101b56101b0366004611865565b610459565b60405190151581526020015b60405180910390f35b3480156101d657600080fd5b506101ea6101e53660046118d8565b610490565b6040519081526020016101c1565b34801561020457600080fd5b506101ea610213366004611936565b60009081526020819052604090206001015490565b34801561023457600080fd5b50610248610243366004611964565b61059d565b005b34801561025657600080fd5b50610248610265366004611964565b6105c7565b610248610278366004611936565b610645565b34801561028957600080fd5b506101ea610298366004611964565b600560209081526000928352604080842090915290825290205481565b3480156102c157600080fd5b506102486102d0366004611994565b6107aa565b3480156102e157600080fd5b506102f56102f0366004611936565b610895565b6040516101c19190611a39565b34801561030e57600080fd5b5061024861031d366004611ab1565b610a4e565b34801561032e57600080fd5b506101b561033d366004611add565b610e2f565b34801561034e57600080fd5b506101b561035d366004611964565b610efb565b34801561036e57600080fd5b5061024861037d366004611add565b610f24565b34801561038e57600080fd5b506101ea61039d366004611aff565b6110fc565b3480156103ae57600080fd5b506101ea600081565b3480156103c357600080fd5b506003546103d7906001600160a01b031681565b6040516001600160a01b0390911681526020016101c1565b3480156103fb57600080fd5b5061024861040a366004611964565b61132f565b34801561041b57600080fd5b5061042f61042a366004611936565b611354565b6040516101c1989796959493929190611b52565b34801561044f57600080fd5b506101ea60025481565b60006001600160e01b03198216637965db0b60e01b148061048a57506301ffc9a760e01b6001600160e01b03198316145b92915050565b6003546040516331a9108f60e11b815260048101879052600091879133916001600160a01b031690636352211e90602401602060405180830381865afa1580156104de573d6000803e3d6000fd5b505050506040513d601f19601f820116820180604052508101906105029190611ba6565b6001600160a01b0316146105285760405162461bcd60e51b815260040161018790611bc3565b60035460405162f577a560e81b8152600481018990526001600160a01b039091169063f577a5009060240160006040518083038186803b15801561056b57600080fd5b505afa15801561057f573d6000803e3d6000fd5b5050505061059260008886898988611423565b979650505050505050565b6000828152602081905260409020600101546105b881611508565b6105c28383611515565b505050565b6001600160a01b03811633146106375760405162461bcd60e51b815260206004820152602f60248201527f416363657373436f6e74726f6c3a2063616e206f6e6c792072656e6f756e636560448201526e103937b632b9903337b91039b2b63360891b6064820152608401610187565b6106418282611599565b5050565b60025481106106665760405162461bcd60e51b815260040161018790611bea565b60008181526004602052604081205460ff166001811115610689576106896119b1565b146106a65760405162461bcd60e51b815260040161018790611c1f565b600034116106f65760405162461bcd60e51b815260206004820152601c60248201527f596f75206d757374206465706f736974206d6f7265207468616e2030000000006044820152606401610187565b60008181526004602052604081206005018054349290610717908490611c6a565b9091555050600081815260056020908152604080832033845290915281208054349290610745908490611c6a565b9091555050600081815260046020526040812060070180549161076783611c7d565b9091555050604080513481526020810183905233917f9bca851a5626287b4c52e9421fba85aca1aebc2e637b410ae19c242fab755001910160405180910390a250565b60006107b581611508565b6000826001600160a01b03164760405160006040518083038185875af1925050503d8060008114610802576040519150601f19603f3d011682016040523d82523d6000602084013e610807565b606091505b505090508061084d5760405162461bcd60e51b81526020600482015260126024820152714661696c656420746f20776974686472617760701b6044820152606401610187565b826001600160a01b03167f52e79696d272e4220b60ff5e97c8b4d34a041f6f107e1d686bf7700cace0e5ee4760405161088891815260200190565b60405180910390a2505050565b6108e16040805161010081019091528060008152602001600081526020016000815260200160008152602001606081526020016000815260200160008019168152602001600081525090565b60025482106109325760405162461bcd60e51b815260206004820181905260248201527f546869732074726561737572652048756e7420646f65736e27742065786973746044820152606401610187565b60008281526004602052604090819020815161010081019092528054829060ff166001811115610964576109646119b1565b6001811115610975576109756119b1565b81526020016001820154815260200160028201548152602001600382015481526020016004820180546109a790611c96565b80601f01602080910402602001604051908101604052809291908181526020018280546109d390611c96565b8015610a205780601f106109f557610100808354040283529160200191610a20565b820191906000526020600020905b815481529060010190602001808311610a0357829003601f168201915b5050505050815260200160058201548152602001600682015481526020016007820154815250509050919050565b610a566115fe565b6002548310610a775760405162461bcd60e51b815260040161018790611bea565b60008381526004602052604081205460ff166001811115610a9a57610a9a6119b1565b14610ab75760405162461bcd60e51b815260040161018790611c1f565b610ac18383610e2f565b610b4e5760405162461bcd60e51b815260206004820152605260248201527f5468652073656372657420636f6465206973206e6f7420636f7272656374206f60448201527f72207468652074726561737572652068756e74206973206e6f74206f70656e6560648201527119081bdc88191bd95cdb89dd08195e1a5cdd60721b608482015260a401610187565b60008381526004602052604081206005015490610b6c606483611cd0565b9050610b788183611cf2565b9150604660006064610b8a8386611d05565b610b949190611cd0565b90506000610ba28286611cf2565b905080861115610c055760405162461bcd60e51b815260206004820152602860248201527f506c6179657220646f6573206e6f742068617665207468697320616d6f756e7460448201526720746f206769766560c01b6064820152608401610187565b610c0f8682611cf2565b9050610c1b8683611c6a565b60035460008a81526004602081905260408083206002015490516331a9108f60e11b815291820152929450916001600160a01b0390911690636352211e90602401602060405180830381865afa158015610c79573d6000803e3d6000fd5b505050506040513d601f19601f82011682018060405250810190610c9d9190611ba6565b6001600160a01b03168360405160006040518083038185875af1925050503d8060008114610ce7576040519150601f19603f3d011682016040523d82523d6000602084013e610cec565b606091505b5050905080610d3d5760405162461bcd60e51b815260206004820181905260248201527f4661696c656420746f2073656e6420626f756e747920746f20636861726974796044820152606401610187565b604051600090339084908381818185875af1925050503d8060008114610d7f576040519150601f19603f3d011682016040523d82523d6000602084013e610d84565b606091505b5050905080610dd55760405162461bcd60e51b815260206004820152601f60248201527f4661696c656420746f2073656e6420626f756e747920746f20706c61796572006044820152606401610187565b60008a81526004602052604080822060058101839055805460ff191660011790555133918c917f6abbceab5b3ffcb544372c86fbb9c3e49de7b3d61eb47848b5885519c1a5a3f99190a3505050505050506105c260018055565b60006002548310610e525760405162461bcd60e51b815260040161018790611bea565b60008381526004602052604081205460ff166001811115610e7557610e756119b1565b14610e925760405162461bcd60e51b815260040161018790611c1f565b6000838152600460205260409020600601548214610ef25760405162461bcd60e51b815260206004820152601e60248201527f5468652073656372657420636f6465206973206e6f7420636f727265637400006044820152606401610187565b50600192915050565b6000918252602082815260408084206001600160a01b0393909316845291905290205460ff1690565b6003546040516331a9108f60e11b815260048101849052839133916001600160a01b0390911690636352211e90602401602060405180830381865afa158015610f71573d6000803e3d6000fd5b505050506040513d601f19601f82011682018060405250810190610f959190611ba6565b6001600160a01b031614610fbb5760405162461bcd60e51b815260040161018790611bc3565b6002548210610fdc5760405162461bcd60e51b815260040161018790611bea565b60008281526004602052604081205460ff166001811115610fff57610fff6119b1565b1461101c5760405162461bcd60e51b815260040161018790611c1f565b600354604051631847c06b60e01b81523360048201526001600160a01b0390911690631847c06b90602401602060405180830381865afa158015611064573d6000803e3d6000fd5b505050506040513d601f19601f820116820180604052508101906110889190611d1c565b600083815260046020526040902060020154146110b75760405162461bcd60e51b815260040161018790611d35565b600082815260046020526040808220805460ff191660011790555183917f964f6049463cbef5efc5211d1f78107c651b4eadb35ccecb5f08b28878e6221391a2505050565b6003546040516331a9108f60e11b815260048101869052600091869133916001600160a01b031690636352211e90602401602060405180830381865afa15801561114a573d6000803e3d6000fd5b505050506040513d601f19601f8201168201806040525081019061116e9190611ba6565b6001600160a01b0316146111945760405162461bcd60e51b815260040161018790611bc3565b60025485106111b55760405162461bcd60e51b815260040161018790611bea565b60008581526004602052604081205460ff1660018111156111d8576111d86119b1565b146111f55760405162461bcd60e51b815260040161018790611c1f565b602e83146112335760405162461bcd60e51b815260206004820152600b60248201526a125b9d985b1a590818da5960aa1b6044820152606401610187565b600354604051631847c06b60e01b81523360048201526001600160a01b0390911690631847c06b90602401602060405180830381865afa15801561127b573d6000803e3d6000fd5b505050506040513d601f19601f8201168201806040525081019061129f9190611d1c565b600086815260046020526040902060020154146112ce5760405162461bcd60e51b815260040161018790611d35565b6000858152600460208190526040909120016112eb848683611de2565b50847f2733f3ca4a860bcbbc44b35de07b857b53fd6d6902fe8524e3c0283b19de83ab858560405161131e929190611ecc565b60405180910390a250949350505050565b60008281526020819052604090206001015461134a81611508565b6105c28383611599565b60046020819052600091825260409091208054600182015460028301546003840154948401805460ff909416959294919361138e90611c96565b80601f01602080910402602001604051908101604052809291908181526020018280546113ba90611c96565b80156114075780601f106113dc57610100808354040283529160200191611407565b820191906000526020600020905b8154815290600101906020018083116113ea57829003601f168201915b5050505050908060050154908060060154908060070154905088565b6000602e83146114635760405162461bcd60e51b815260206004820152600b60248201526a125b9d985b1a590818da5960aa1b6044820152606401610187565b60028054908190600061147583611c7d565b90915550506000818152600460208190526040909120805460ff1916815560028101899055600381018890559081016114af868883611de2565b50600681018490556040517f129d38ae6cd1528d7f47864cc47bd1e58e0a28b8581bd8e5f811f47e08ab1fb0906114f49060009085908c908c908c908c908c90611ee8565b60405180910390a150979650505050505050565b6115128133611657565b50565b61151f8282610efb565b610641576000828152602081815260408083206001600160a01b03851684529091529020805460ff191660011790556115553390565b6001600160a01b0316816001600160a01b0316837f2f8788117e7eff1d82e926ec794901d17c78024a50270940304540a733656f0d60405160405180910390a45050565b6115a38282610efb565b15610641576000828152602081815260408083206001600160a01b0385168085529252808320805460ff1916905551339285917ff6391f5c32d9c69d2a47ea670b442974b53935d1edc7fd64eb21e047a839171b9190a45050565b6002600154036116505760405162461bcd60e51b815260206004820152601f60248201527f5265656e7472616e637947756172643a207265656e7472616e742063616c6c006044820152606401610187565b6002600155565b6116618282610efb565b6106415761166e816116b0565b6116798360206116c2565b60405160200161168a929190611f2f565b60408051601f198184030181529082905262461bcd60e51b825261018791600401611fa4565b606061048a6001600160a01b03831660145b606060006116d1836002611d05565b6116dc906002611c6a565b67ffffffffffffffff8111156116f4576116f4611d7e565b6040519080825280601f01601f19166020018201604052801561171e576020820181803683370190505b509050600360fc1b8160008151811061173957611739611fb7565b60200101906001600160f81b031916908160001a905350600f60fb1b8160018151811061176857611768611fb7565b60200101906001600160f81b031916908160001a905350600061178c846002611d05565b611797906001611c6a565b90505b600181111561180f576f181899199a1a9b1b9c1cb0b131b232b360811b85600f16601081106117cb576117cb611fb7565b1a60f81b8282815181106117e1576117e1611fb7565b60200101906001600160f81b031916908160001a90535060049490941c9361180881611fcd565b905061179a565b50831561185e5760405162461bcd60e51b815260206004820181905260248201527f537472696e67733a20686578206c656e67746820696e73756666696369656e746044820152606401610187565b9392505050565b60006020828403121561187757600080fd5b81356001600160e01b03198116811461185e57600080fd5b60008083601f8401126118a157600080fd5b50813567ffffffffffffffff8111156118b957600080fd5b6020830191508360208285010111156118d157600080fd5b9250929050565b6000806000806000608086880312156118f057600080fd5b85359450602086013567ffffffffffffffff81111561190e57600080fd5b61191a8882890161188f565b9699909850959660408101359660609091013595509350505050565b60006020828403121561194857600080fd5b5035919050565b6001600160a01b038116811461151257600080fd5b6000806040838503121561197757600080fd5b8235915060208301356119898161194f565b809150509250929050565b6000602082840312156119a657600080fd5b813561185e8161194f565b634e487b7160e01b600052602160045260246000fd5b600281106119e557634e487b7160e01b600052602160045260246000fd5b9052565b60005b83811015611a045781810151838201526020016119ec565b50506000910152565b60008151808452611a258160208601602086016119e9565b601f01601f19169290920160200192915050565b60208152611a4b6020820183516119c7565b602082015160408201526040820151606082015260608201516080820152600060808301516101008060a0850152611a87610120850183611a0d565b915060a085015160c085015260c085015160e085015260e085015181850152508091505092915050565b600080600060608486031215611ac657600080fd5b505081359360208301359350604090920135919050565b60008060408385031215611af057600080fd5b50508035926020909101359150565b60008060008060608587031215611b1557600080fd5b8435935060208501359250604085013567ffffffffffffffff811115611b3a57600080fd5b611b468782880161188f565b95989497509550505050565b6000610100611b61838c6119c7565b896020840152886040840152876060840152806080840152611b8581840188611a0d565b60a0840196909652505060c081019290925260e09091015295945050505050565b600060208284031215611bb857600080fd5b815161185e8161194f565b6020808252600d908201526c2737ba103a34329037bbb732b960991b604082015260600190565b6020808252818101527f546869732054726561737572652068756e7420646f65736e2774206578697374604082015260600190565b6020808252818101527f546869732054726561737572652068756e74206973206e6f74206f70656e6564604082015260600190565b634e487b7160e01b600052601160045260246000fd5b8082018082111561048a5761048a611c54565b600060018201611c8f57611c8f611c54565b5060010190565b600181811c90821680611caa57607f821691505b602082108103611cca57634e487b7160e01b600052602260045260246000fd5b50919050565b600082611ced57634e487b7160e01b600052601260045260246000fd5b500490565b8181038181111561048a5761048a611c54565b808202811582820484141761048a5761048a611c54565b600060208284031215611d2e57600080fd5b5051919050565b60208082526029908201527f596f75277265206e6f7420746865206f776e6572206f66207468697320547265604082015268185cdd5c99521d5b9d60ba1b606082015260800190565b634e487b7160e01b600052604160045260246000fd5b601f8211156105c257600081815260208120601f850160051c81016020861015611dbb5750805b601f850160051c820191505b81811015611dda57828155600101611dc7565b505050505050565b67ffffffffffffffff831115611dfa57611dfa611d7e565b611e0e83611e088354611c96565b83611d94565b6000601f841160018114611e425760008515611e2a5750838201355b600019600387901b1c1916600186901b178355611e9c565b600083815260209020601f19861690835b82811015611e735786850135825560209485019460019092019101611e53565b5086821015611e905760001960f88860031b161c19848701351681555b505060018560011b0183555b5050505050565b81835281816020850137506000828201602090810191909152601f909101601f19169091010190565b602081526000611ee0602083018486611ea3565b949350505050565b611ef281896119c7565b86602082015285604082015284606082015260c060808201526000611f1b60c083018587611ea3565b90508260a083015298975050505050505050565b7f416363657373436f6e74726f6c3a206163636f756e7420000000000000000000815260008351611f678160178501602088016119e9565b7001034b99036b4b9b9b4b733903937b6329607d1b6017918401918201528351611f988160288401602088016119e9565b01602801949350505050565b60208152600061185e6020830184611a0d565b634e487b7160e01b600052603260045260246000fd5b600081611fdc57611fdc611c54565b50600019019056fea264697066735822122064ce5a2a45f2311d4bbd46e00d354c4a7818a0b996cda50320f4e0d25dac366b64736f6c63430008110033",
  "linkReferences": {},
  "deployedLinkReferences": {}
}